{
  "_format": "hh-sol-artifact-1",
  "contractName": "AccessControl",
  "sourceName": "contracts/AccessControl.sol",
  "abi": [
    {
      "inputs": [
        {
          "internalType": "address",
          "name": "registryAddress",
          "type": "address"
        }
      ],
      "stateMutability": "nonpayable",
      "type": "constructor"
    },
    {
      "anonymous": false,
      "inputs": [
        {
          "indexed": true,
          "internalType": "bytes32",
          "name": "postId",
          "type": "bytes32"
        },
        {
          "indexed": true,
          "internalType": "address",
          "name": "author",
          "type": "address"
        },
        {
          "indexed": false,
          "internalType": "enum AccessControl.Visibility",
          "name": "newVisibility",
          "type": "uint8"
        },
        {
          "indexed": false,
          "internalType": "uint256",
          "name": "timestamp",
          "type": "uint256"
        }
      ],
      "name": "VisibilityChanged",
      "type": "event"
    },
    {
      "inputs": [
        {
          "internalType": "bytes32",
          "name": "postId",
          "type": "bytes32"
        }
      ],
      "name": "getVisibility",
      "outputs": [
        {
          "internalType": "enum AccessControl.Visibility",
          "name": "",
          "type": "uint8"
        }
      ],
      "stateMutability": "view",
      "type": "function"
    },
    {
      "inputs": [
        {
          "internalType": "bytes32",
          "name": "postId",
          "type": "bytes32"
        },
        {
          "internalType": "enum AccessControl.Visibility",
          "name": "visibility",
          "type": "uint8"
        }
      ],
      "name": "setVisibility",
      "outputs": [],
      "stateMutability": "nonpayable",
      "type": "function"
    }
  ],
  "bytecode": "0x60a060405234801561001057600080fd5b506040516109f03803806109f0833981810160405281019061003291906100cf565b8073ffffffffffffffffffffffffffffffffffffffff1660808173ffffffffffffffffffffffffffffffffffffffff1681525050506100fc565b600080fd5b600073ffffffffffffffffffffffffffffffffffffffff82169050919050565b600061009c82610071565b9050919050565b6100ac81610091565b81146100b757600080fd5b50565b6000815190506100c9816100a3565b92915050565b6000602082840312156100e5576100e461006c565b5b60006100f3848285016100ba565b91505092915050565b6080516108da6101166000396000608b01526108da6000f3fe608060405234801561001057600080fd5b50600436106100365760003560e01c8063c396221d1461003b578063c627f1ee14610057575b600080fd5b61005560048036038101906100509190610309565b610087565b005b610071600480360381019061006c9190610349565b610271565b60405161007e91906103ed565b60405180910390f35b60007f000000000000000000000000000000000000000000000000000000000000000073ffffffffffffffffffffffffffffffffffffffff166393e43bbe846040518263ffffffff1660e01b81526004016100e29190610417565b600060405180830381865afa1580156100ff573d6000803e3d6000fd5b505050506040513d6000823e3d601f19601f82011682018060405250810190610128919061073a565b90503373ffffffffffffffffffffffffffffffffffffffff16816020015173ffffffffffffffffffffffffffffffffffffffff161461019c576040517f08c379a0000000000000000000000000000000000000000000000000000000008152600401610193906107e0565b60405180910390fd5b8060a00151156101e1576040517f08c379a00000000000000000000000000000000000000000000000000000000081526004016101d89061084c565b60405180910390fd5b8160008085815260200190815260200160002060006101000a81548160ff0219169083600281111561021657610215610376565b5b02179055503373ffffffffffffffffffffffffffffffffffffffff16837f745244691b87ea4f141aac50ff27373b50df659079587eb49aac894f6f0f5a07844260405161026492919061087b565b60405180910390a3505050565b600080600083815260200190815260200160002060009054906101000a900460ff169050919050565b6000604051905090565b600080fd5b600080fd5b6000819050919050565b6102c1816102ae565b81146102cc57600080fd5b50565b6000813590506102de816102b8565b92915050565b600381106102f157600080fd5b50565b600081359050610303816102e4565b92915050565b600080604083850312156103205761031f6102a4565b5b600061032e858286016102cf565b925050602061033f858286016102f4565b9150509250929050565b60006020828403121561035f5761035e6102a4565b5b600061036d848285016102cf565b91505092915050565b7f4e487b7100000000000000000000000000000000000000000000000000000000600052602160045260246000fd5b600381106103b6576103b5610376565b5b50565b60008190506103c7826103a5565b919050565b60006103d7826103b9565b9050919050565b6103e7816103cc565b82525050565b600060208201905061040260008301846103de565b92915050565b610411816102ae565b82525050565b600060208201905061042c6000830184610408565b92915050565b600080fd5b6000601f19601f8301169050919050565b7f4e487b7100000000000000000000000000000000000000000000000000000000600052604160045260246000fd5b61048082610437565b810181811067ffffffffffffffff8211171561049f5761049e610448565b5b80604052505050565b60006104b261029a565b90506104be8282610477565b919050565b600080fd5b6000815190506104d7816102b8565b92915050565b600073ffffffffffffffffffffffffffffffffffffffff82169050919050565b6000610508826104dd565b9050919050565b610518816104fd565b811461052357600080fd5b50565b6000815190506105358161050f565b92915050565b600080fd5b600080fd5b600067ffffffffffffffff8211156105605761055f610448565b5b61056982610437565b9050602081019050919050565b60005b83811015610594578082015181840152602081019050610579565b60008484015250505050565b60006105b36105ae84610545565b6104a8565b9050828152602081018484840111156105cf576105ce610540565b5b6105da848285610576565b509392505050565b600082601f8301126105f7576105f661053b565b5b81516106078482602086016105a0565b91505092915050565b6000819050919050565b61062381610610565b811461062e57600080fd5b50565b6000815190506106408161061a565b92915050565b60008115159050919050565b61065b81610646565b811461066657600080fd5b50565b60008151905061067881610652565b92915050565b600060c0828403121561069457610693610432565b5b61069e60c06104a8565b905060006106ae848285016104c8565b60008301525060206106c284828501610526565b602083015250604082015167ffffffffffffffff8111156106e6576106e56104c3565b5b6106f2848285016105e2565b604083015250606061070684828501610631565b606083015250608061071a84828501610669565b60808301525060a061072e84828501610669565b60a08301525092915050565b6000602082840312156107505761074f6102a4565b5b600082015167ffffffffffffffff81111561076e5761076d6102a9565b5b61077a8482850161067e565b91505092915050565b600082825260208201905092915050565b7f4e6f742074686520617574686f72000000000000000000000000000000000000600082015250565b60006107ca600e83610783565b91506107d582610794565b602082019050919050565b600060208201905081810360008301526107f9816107bd565b9050919050565b7f506f73742069732064656c657465640000000000000000000000000000000000600082015250565b6000610836600f83610783565b915061084182610800565b602082019050919050565b6000602082019050818103600083015261086581610829565b9050919050565b61087581610610565b82525050565b600060408201905061089060008301856103de565b61089d602083018461086c565b939250505056fea2646970667358221220737a543ed257dcaffe642e0fadec6ed4759efc4c69733a647df623a7917df60764736f6c63430008140033",
  "linkReferences": {},
  "deployedLinkReferences": {}
}