{
  "_format": "hh-sol-artifact-1",
  "contractName": "EditHistory",
  "sourceName": "contracts/EditHistory.sol",
  "abi": [
    {
      "inputs": [
        {
          "internalType": "address",
          "name": "registryAddress",
          "type": "address"
        }
      ],
      "stateMutability": "nonpayable",
      "type": "constructor"
    },
    {
      "anonymous": false,
      "inputs": [
        {
          "indexed": true,
          "internalType": "bytes32",
          "name": "postId",
          "type": "bytes32"
        },
        {
          "indexed": true,
          "internalType": "address",
          "name": "editor",
          "type": "address"
        },
        {
          "indexed": false,
          "internalType": "uint256",
          "name": "versionNumber",
          "type": "uint256"
        },
        {
          "indexed": false,
          "internalType": "string",
          "name": "newIpfsCid",
          "type": "string"
        },
        {
          "indexed": false,
          "internalType": "uint256",
          "name": "timestamp",
          "type": "uint256"
        }
      ],
      "name": "PostEdited",
      "type": "event"
    },
    {
      "inputs": [
        {
          "internalType": "bytes32",
          "name": "postId",
          "type": "bytes32"
        },
        {
          "internalType": "string",
          "name": "newCid",
          "type": "string"
        },
        {
          "internalType": "string",
          "name": "editNote",
          "type": "string"
        }
      ],
      "name": "editPost",
      "outputs": [],
      "stateMutability": "nonpayable",
      "type": "function"
    },
    {
      "inputs": [
        {
          "internalType": "bytes32",
          "name": "postId",
          "type": "bytes32"
        }
      ],
      "name": "getHistory",
      "outputs": [
        {
          "components": [
            {
              "internalType": "uint256",
              "name": "versionNumber",
              "type": "uint256"
            },
            {
              "internalType": "string",
              "name": "ipfsCid",
              "type": "string"
            },
            {
              "internalType": "string",
              "name": "editNote",
              "type": "string"
            },
            {
              "internalType": "uint256",
              "name": "timestamp",
              "type": "uint256"
            }
          ],
          "internalType": "struct EditHistory.Version[]",
          "name": "",
          "type": "tuple[]"
        }
      ],
      "stateMutability": "view",
      "type": "function"
    },
    {
      "inputs": [
        {
          "internalType": "bytes32",
          "name": "postId",
          "type": "bytes32"
        },
        {
          "internalType": "uint256",
          "name": "versionNumber",
          "type": "uint256"
        }
      ],
      "name": "getVersion",
      "outputs": [
        {
          "components": [
            {
              "internalType": "uint256",
              "name": "versionNumber",
              "type": "uint256"
            },
            {
              "internalType": "string",
              "name": "ipfsCid",
              "type": "string"
            },
            {
              "internalType": "string",
              "name": "editNote",
              "type": "string"
            },
            {
              "internalType": "uint256",
              "name": "timestamp",
              "type": "uint256"
            }
          ],
          "internalType": "struct EditHistory.Version",
          "name": "",
          "type": "tuple"
        }
      ],
      "stateMutability": "view",
      "type": "function"
    },
    {
      "inputs": [
        {
          "internalType": "bytes32",
          "name": "postId",
          "type": "bytes32"
        },
        {
          "internalType": "string",
          "name": "ipfsCid",
          "type": "string"
        }
      ],
      "name": "recordOriginal",
      "outputs": [],
      "stateMutability": "nonpayable",
      "type": "function"
    }
  ],
  "bytecode": "0x60a06040523480156200001157600080fd5b506040516200194a3803806200194a8339818101604052810190620000379190620000dc565b8073ffffffffffffffffffffffffffffffffffffffff1660808173ffffffffffffffffffffffffffffffffffffffff1681525050506200010e565b600080fd5b600073ffffffffffffffffffffffffffffffffffffffff82169050919050565b6000620000a48262000077565b9050919050565b620000b68162000097565b8114620000c257600080fd5b50565b600081519050620000d681620000ab565b92915050565b600060208284031215620000f557620000f462000072565b5b60006200010584828501620000c5565b91505092915050565b6080516118196200013160003960008181610296015261057201526118196000f3fe608060405234801561001057600080fd5b506004361061004c5760003560e01c8063115d620d146100515780632ba5930a146100815780637ab962f41461009d578063af904a06146100b9575b600080fd5b61006b60048036038101906100669190610afa565b6100e9565b6040516100789190610cfc565b60405180910390f35b61009b60048036038101906100969190610d83565b610292565b005b6100b760048036038101906100b29190610de3565b61056e565b005b6100d360048036038101906100ce9190610ea4565b6108ac565b6040516100e09190610f4e565b60405180910390f35b6060600080838152602001908152602001600020805480602002602001604051908101604052809291908181526020016000905b8282101561028757838290600052602060002090600402016040518060800160405290816000820154815260200160018201805461015a90610f9f565b80601f016020809104026020016040519081016040528092919081815260200182805461018690610f9f565b80156101d35780601f106101a8576101008083540402835291602001916101d3565b820191906000526020600020905b8154815290600101906020018083116101b657829003601f168201915b505050505081526020016002820180546101ec90610f9f565b80601f016020809104026020016040519081016040528092919081815260200182805461021890610f9f565b80156102655780601f1061023a57610100808354040283529160200191610265565b820191906000526020600020905b81548152906001019060200180831161024857829003601f168201915b505050505081526020016003820154815250508152602001906001019061011d565b505050509050919050565b60007f000000000000000000000000000000000000000000000000000000000000000073ffffffffffffffffffffffffffffffffffffffff166393e43bbe856040518263ffffffff1660e01b81526004016102ed9190610fdf565b600060405180830381865afa15801561030a573d6000803e3d6000fd5b505050506040513d6000823e3d601f19601f8201168201806040525081019061033391906112a1565b90503373ffffffffffffffffffffffffffffffffffffffff16816020015173ffffffffffffffffffffffffffffffffffffffff16146103a7576040517f08c379a000000000000000000000000000000000000000000000000000000000815260040161039e90611347565b60405180910390fd5b8060a00151156103ec576040517f08c379a00000000000000000000000000000000000000000000000000000000081526004016103e3906113b3565b60405180910390fd5b60008383905011610432576040517f08c379a00000000000000000000000000000000000000000000000000000000081526004016104299061141f565b60405180910390fd5b600080600086815260200190815260200160002080549050036105685760008085815260200190815260200160002060405180608001604052806000815260200185858080601f016020809104026020016040519081016040528093929190818152602001838380828437600081840152601f19601f8201169050808301925050505050505081526020016040518060400160405280600881526020017f4f726967696e616c000000000000000000000000000000000000000000000000815250815260200142815250908060018154018082558091505060019003906000526020600020906004020160009091909190915060008201518160000155602082015181600101908161054491906115eb565b50604082015181600201908161055a91906115eb565b506060820151816003015550505b50505050565b60007f000000000000000000000000000000000000000000000000000000000000000073ffffffffffffffffffffffffffffffffffffffff166393e43bbe876040518263ffffffff1660e01b81526004016105c99190610fdf565b600060405180830381865afa1580156105e6573d6000803e3d6000fd5b505050506040513d6000823e3d601f19601f8201168201806040525081019061060f91906112a1565b90503373ffffffffffffffffffffffffffffffffffffffff16816020015173ffffffffffffffffffffffffffffffffffffffff1614610683576040517f08c379a000000000000000000000000000000000000000000000000000000000815260040161067a90611347565b60405180910390fd5b8060a00151156106c8576040517f08c379a00000000000000000000000000000000000000000000000000000000081526004016106bf906113b3565b60405180910390fd5b6000858590501161070e576040517f08c379a00000000000000000000000000000000000000000000000000000000081526004016107059061141f565b60405180910390fd5b6000806000888152602001908152602001600020805490509050600080888152602001908152602001600020604051806080016040528083815260200188888080601f016020809104026020016040519081016040528093929190818152602001838380828437600081840152601f19601f82011690508083019250505050505050815260200186868080601f016020809104026020016040519081016040528093929190818152602001838380828437600081840152601f19601f82011690508083019250505050505050815260200142815250908060018154018082558091505060019003906000526020600020906004020160009091909190915060008201518160000155602082015181600101908161082b91906115eb565b50604082015181600201908161084191906115eb565b506060820151816003015550503373ffffffffffffffffffffffffffffffffffffffff16877fd3e579789c00c743a0a24439ed609c26c5d06e5a754977109938a6a80aef09ca8389894260405161089b9493929190611708565b60405180910390a350505050505050565b6108b4610a88565b60008084815260200190815260200160002080549050821061090b576040517f08c379a000000000000000000000000000000000000000000000000000000000815260040161090290611794565b60405180910390fd5b600080848152602001908152602001600020828154811061092f5761092e6117b4565b5b90600052602060002090600402016040518060800160405290816000820154815260200160018201805461096290610f9f565b80601f016020809104026020016040519081016040528092919081815260200182805461098e90610f9f565b80156109db5780601f106109b0576101008083540402835291602001916109db565b820191906000526020600020905b8154815290600101906020018083116109be57829003601f168201915b505050505081526020016002820180546109f490610f9f565b80601f0160208091040260200160405190810160405280929190818152602001828054610a2090610f9f565b8015610a6d5780601f10610a4257610100808354040283529160200191610a6d565b820191906000526020600020905b815481529060010190602001808311610a5057829003601f168201915b50505050508152602001600382015481525050905092915050565b6040518060800160405280600081526020016060815260200160608152602001600081525090565b6000604051905090565b600080fd5b600080fd5b6000819050919050565b610ad781610ac4565b8114610ae257600080fd5b50565b600081359050610af481610ace565b92915050565b600060208284031215610b1057610b0f610aba565b5b6000610b1e84828501610ae5565b91505092915050565b600081519050919050565b600082825260208201905092915050565b6000819050602082019050919050565b6000819050919050565b610b6681610b53565b82525050565b600081519050919050565b600082825260208201905092915050565b60005b83811015610ba6578082015181840152602081019050610b8b565b60008484015250505050565b6000601f19601f8301169050919050565b6000610bce82610b6c565b610bd88185610b77565b9350610be8818560208601610b88565b610bf181610bb2565b840191505092915050565b6000608083016000830151610c146000860182610b5d565b5060208301518482036020860152610c2c8282610bc3565b91505060408301518482036040860152610c468282610bc3565b9150506060830151610c5b6060860182610b5d565b508091505092915050565b6000610c728383610bfc565b905092915050565b6000602082019050919050565b6000610c9282610b27565b610c9c8185610b32565b935083602082028501610cae85610b43565b8060005b85811015610cea5784840389528151610ccb8582610c66565b9450610cd683610c7a565b925060208a01995050600181019050610cb2565b50829750879550505050505092915050565b60006020820190508181036000830152610d168184610c87565b905092915050565b600080fd5b600080fd5b600080fd5b60008083601f840112610d4357610d42610d1e565b5b8235905067ffffffffffffffff811115610d6057610d5f610d23565b5b602083019150836001820283011115610d7c57610d7b610d28565b5b9250929050565b600080600060408486031215610d9c57610d9b610aba565b5b6000610daa86828701610ae5565b935050602084013567ffffffffffffffff811115610dcb57610dca610abf565b5b610dd786828701610d2d565b92509250509250925092565b600080600080600060608688031215610dff57610dfe610aba565b5b6000610e0d88828901610ae5565b955050602086013567ffffffffffffffff811115610e2e57610e2d610abf565b5b610e3a88828901610d2d565b9450945050604086013567ffffffffffffffff811115610e5d57610e5c610abf565b5b610e6988828901610d2d565b92509250509295509295909350565b610e8181610b53565b8114610e8c57600080fd5b50565b600081359050610e9e81610e78565b92915050565b60008060408385031215610ebb57610eba610aba565b5b6000610ec985828601610ae5565b9250506020610eda85828601610e8f565b9150509250929050565b6000608083016000830151610efc6000860182610b5d565b5060208301518482036020860152610f148282610bc3565b91505060408301518482036040860152610f2e8282610bc3565b9150506060830151610f436060860182610b5d565b508091505092915050565b60006020820190508181036000830152610f688184610ee4565b905092915050565b7f4e487b7100000000000000000000000000000000000000000000000000000000600052602260045260246000fd5b60006002820490506001821680610fb757607f821691505b602082108103610fca57610fc9610f70565b5b50919050565b610fd981610ac4565b82525050565b6000602082019050610ff46000830184610fd0565b92915050565b600080fd5b7f4e487b7100000000000000000000000000000000000000000000000000000000600052604160045260246000fd5b61103782610bb2565b810181811067ffffffffffffffff8211171561105657611055610fff565b5b80604052505050565b6000611069610ab0565b9050611075828261102e565b919050565b600080fd5b60008151905061108e81610ace565b92915050565b600073ffffffffffffffffffffffffffffffffffffffff82169050919050565b60006110bf82611094565b9050919050565b6110cf816110b4565b81146110da57600080fd5b50565b6000815190506110ec816110c6565b92915050565b600080fd5b600067ffffffffffffffff82111561111257611111610fff565b5b61111b82610bb2565b9050602081019050919050565b600061113b611136846110f7565b61105f565b905082815260208101848484011115611157576111566110f2565b5b611162848285610b88565b509392505050565b600082601f83011261117f5761117e610d1e565b5b815161118f848260208601611128565b91505092915050565b6000815190506111a781610e78565b92915050565b60008115159050919050565b6111c2816111ad565b81146111cd57600080fd5b50565b6000815190506111df816111b9565b92915050565b600060c082840312156111fb576111fa610ffa565b5b61120560c061105f565b905060006112158482850161107f565b6000830152506020611229848285016110dd565b602083015250604082015167ffffffffffffffff81111561124d5761124c61107a565b5b6112598482850161116a565b604083015250606061126d84828501611198565b6060830152506080611281848285016111d0565b60808301525060a0611295848285016111d0565b60a08301525092915050565b6000602082840312156112b7576112b6610aba565b5b600082015167ffffffffffffffff8111156112d5576112d4610abf565b5b6112e1848285016111e5565b91505092915050565b600082825260208201905092915050565b7f4e6f742074686520617574686f72000000000000000000000000000000000000600082015250565b6000611331600e836112ea565b915061133c826112fb565b602082019050919050565b6000602082019050818103600083015261136081611324565b9050919050565b7f506f73742069732064656c657465640000000000000000000000000000000000600082015250565b600061139d600f836112ea565b91506113a882611367565b602082019050919050565b600060208201905081810360008301526113cc81611390565b9050919050565b7f4349442063616e6e6f7420626520656d70747900000000000000000000000000600082015250565b60006114096013836112ea565b9150611414826113d3565b602082019050919050565b60006020820190508181036000830152611438816113fc565b9050919050565b60008190508160005260206000209050919050565b60006020601f8301049050919050565b600082821b905092915050565b6000600883026114a17fffffffffffffffffffffffffffffffffffffffffffffffffffffffffffffffff82611464565b6114ab8683611464565b95508019841693508086168417925050509392505050565b6000819050919050565b60006114e86114e36114de84610b53565b6114c3565b610b53565b9050919050565b6000819050919050565b611502836114cd565b61151661150e826114ef565b848454611471565b825550505050565b600090565b61152b61151e565b6115368184846114f9565b505050565b5b8181101561155a5761154f600082611523565b60018101905061153c565b5050565b601f82111561159f576115708161143f565b61157984611454565b81016020851015611588578190505b61159c61159485611454565b83018261153b565b50505b505050565b600082821c905092915050565b60006115c2600019846008026115a4565b1980831691505092915050565b60006115db83836115b1565b9150826002028217905092915050565b6115f482610b6c565b67ffffffffffffffff81111561160d5761160c610fff565b5b6116178254610f9f565b61162282828561155e565b600060209050601f8311600181146116555760008415611643578287015190505b61164d85826115cf565b8655506116b5565b601f1984166116638661143f565b60005b8281101561168b57848901518255600182019150602085019450602081019050611666565b868310156116a857848901516116a4601f8916826115b1565b8355505b6001600288020188555050505b505050505050565b6116c681610b53565b82525050565b82818337600083830152505050565b60006116e783856112ea565b93506116f48385846116cc565b6116fd83610bb2565b840190509392505050565b600060608201905061171d60008301876116bd565b81810360208301526117308185876116db565b905061173f60408301846116bd565b95945050505050565b7f56657273696f6e20646f6573206e6f7420657869737400000000000000000000600082015250565b600061177e6016836112ea565b915061178982611748565b602082019050919050565b600060208201905081810360008301526117ad81611771565b9050919050565b7f4e487b7100000000000000000000000000000000000000000000000000000000600052603260045260246000fdfea2646970667358221220c4cc7279ed05429779038ac3961810e29a4efd4094b50080b58bdf34c627a27664736f6c63430008140033",
  "linkReferences": {},
  "deployedLinkReferences": {}
}