{
  "_format": "hh-sol-artifact-1",
  "contractName": "PostRegistry",
  "sourceName": "contracts/PostRegistry.sol",
  "abi": [
    {
      "anonymous": false,
      "inputs": [
        {
          "indexed": true,
          "internalType": "bytes32",
          "name": "postId",
          "type": "bytes32"
        },
        {
          "indexed": true,
          "internalType": "address",
          "name": "author",
          "type": "address"
        },
        {
          "indexed": false,
          "internalType": "string",
          "name": "ipfsCid",
          "type": "string"
        },
        {
          "indexed": false,
          "internalType": "uint256",
          "name": "createdAt",
          "type": "uint256"
        }
      ],
      "name": "PostCreated",
      "type": "event"
    },
    {
      "anonymous": false,
      "inputs": [
        {
          "indexed": true,
          "internalType": "bytes32",
          "name": "postId",
          "type": "bytes32"
        },
        {
          "indexed": true,
          "internalType": "address",
          "name": "author",
          "type": "address"
        },
        {
          "indexed": false,
          "internalType": "uint256",
          "name": "deletedAt",
          "type": "uint256"
        }
      ],
      "name": "PostDeleted",
      "type": "event"
    },
    {
      "inputs": [
        {
          "internalType": "string",
          "name": "ipfsCid",
          "type": "string"
        }
      ],
      "name": "createPost",
      "outputs": [
        {
          "internalType": "bytes32",
          "name": "postId",
          "type": "bytes32"
        }
      ],
      "stateMutability": "nonpayable",
      "type": "function"
    },
    {
      "inputs": [
        {
          "internalType": "bytes32",
          "name": "postId",
          "type": "bytes32"
        }
      ],
      "name": "deletePost",
      "outputs": [],
      "stateMutability": "nonpayable",
      "type": "function"
    },
    {
      "inputs": [
        {
          "internalType": "bytes32",
          "name": "postId",
          "type": "bytes32"
        }
      ],
      "name": "getPost",
      "outputs": [
        {
          "components": [
            {
              "internalType": "bytes32",
              "name": "postId",
              "type": "bytes32"
            },
            {
              "internalType": "address",
              "name": "author",
              "type": "address"
            },
            {
              "internalType": "string",
              "name": "ipfsCid",
              "type": "string"
            },
            {
              "internalType": "uint256",
              "name": "createdAt",
              "type": "uint256"
            },
            {
              "internalType": "bool",
              "name": "exists",
              "type": "bool"
            },
            {
              "internalType": "bool",
              "name": "deleted",
              "type": "bool"
            }
          ],
          "internalType": "struct PostRegistry.Post",
          "name": "",
          "type": "tuple"
        }
      ],
      "stateMutability": "view",
      "type": "function"
    },
    {
      "inputs": [
        {
          "internalType": "address",
          "name": "author",
          "type": "address"
        }
      ],
      "name": "getPostsByAuthor",
      "outputs": [
        {
          "internalType": "bytes32[]",
          "name": "",
          "type": "bytes32[]"
        }
      ],
      "stateMutability": "view",
      "type": "function"
    }
  ],
  "bytecode": "0x608060405234801561001057600080fd5b5061128c806100206000396000f3fe608060405234801561001057600080fd5b506004361061004c5760003560e01c806393e43bbe14610051578063c7303c6114610081578063e9752efa146100b1578063f4ab2499146100cd575b600080fd5b61006b6004803603810190610066919061082a565b6100fd565b60405161007891906109f4565b60405180910390f35b61009b60048036038101906100969190610a7b565b6102bd565b6040516100a89190610ad7565b60405180910390f35b6100cb60048036038101906100c6919061082a565b610545565b005b6100e760048036038101906100e29190610b1e565b610700565b6040516100f49190610bfa565b60405180910390f35b610105610797565b60008083815260200190815260200160002060040160009054906101000a900460ff16610167576040517f08c379a000000000000000000000000000000000000000000000000000000000815260040161015e90610c79565b60405180910390fd5b6000808381526020019081526020016000206040518060c0016040529081600082015481526020016001820160009054906101000a900473ffffffffffffffffffffffffffffffffffffffff1673ffffffffffffffffffffffffffffffffffffffff1673ffffffffffffffffffffffffffffffffffffffff1681526020016002820180546101f490610cc8565b80601f016020809104026020016040519081016040528092919081815260200182805461022090610cc8565b801561026d5780601f106102425761010080835404028352916020019161026d565b820191906000526020600020905b81548152906001019060200180831161025057829003601f168201915b50505050508152602001600382015481526020016004820160009054906101000a900460ff161515151581526020016004820160019054906101000a900460ff1615151515815250509050919050565b6000808383905011610304576040517f08c379a00000000000000000000000000000000000000000000000000000000081526004016102fb90610d45565b60405180910390fd5b3383834260405160200161031b9493929190610e0d565b6040516020818303038152906040528051906020012090506040518060c001604052808281526020013373ffffffffffffffffffffffffffffffffffffffff16815260200184848080601f016020809104026020016040519081016040528093929190818152602001838380828437600081840152601f19601f820116905080830192505050505050508152602001428152602001600115158152602001600015158152506000808381526020019081526020016000206000820151816000015560208201518160010160006101000a81548173ffffffffffffffffffffffffffffffffffffffff021916908373ffffffffffffffffffffffffffffffffffffffff16021790555060408201518160020190816104389190611023565b506060820151816003015560808201518160040160006101000a81548160ff02191690831515021790555060a08201518160040160016101000a81548160ff021916908315150217905550905050600160003373ffffffffffffffffffffffffffffffffffffffff1673ffffffffffffffffffffffffffffffffffffffff1681526020019081526020016000208190806001815401808255809150506001900390600052602060002001600090919091909150553373ffffffffffffffffffffffffffffffffffffffff16817fcf1a9f65b492f71b079443bd0ada15c017dbf79f7ffdb7469aa8ceb851c3e8b785854260405161053793929190611131565b60405180910390a392915050565b600080600083815260200190815260200160002090508060040160009054906101000a900460ff166105ac576040517f08c379a00000000000000000000000000000000000000000000000000000000081526004016105a390610c79565b60405180910390fd5b3373ffffffffffffffffffffffffffffffffffffffff168160010160009054906101000a900473ffffffffffffffffffffffffffffffffffffffff1673ffffffffffffffffffffffffffffffffffffffff161461063e576040517f08c379a0000000000000000000000000000000000000000000000000000000008152600401610635906111af565b60405180910390fd5b8060040160019054906101000a900460ff1615610690576040517f08c379a00000000000000000000000000000000000000000000000000000000081526004016106879061121b565b60405180910390fd5b60018160040160016101000a81548160ff0219169083151502179055503373ffffffffffffffffffffffffffffffffffffffff16827f83a47917aa354cdf73d481d82216af5d333390d8039d0ebd889da54ee77ad0a0426040516106f4919061123b565b60405180910390a35050565b6060600160008373ffffffffffffffffffffffffffffffffffffffff1673ffffffffffffffffffffffffffffffffffffffff16815260200190815260200160002080548060200260200160405190810160405280929190818152602001828054801561078b57602002820191906000526020600020905b815481526020019060010190808311610777575b50505050509050919050565b6040518060c0016040528060008019168152602001600073ffffffffffffffffffffffffffffffffffffffff16815260200160608152602001600081526020016000151581526020016000151581525090565b600080fd5b600080fd5b6000819050919050565b610807816107f4565b811461081257600080fd5b50565b600081359050610824816107fe565b92915050565b6000602082840312156108405761083f6107ea565b5b600061084e84828501610815565b91505092915050565b610860816107f4565b82525050565b600073ffffffffffffffffffffffffffffffffffffffff82169050919050565b600061089182610866565b9050919050565b6108a181610886565b82525050565b600081519050919050565b600082825260208201905092915050565b60005b838110156108e15780820151818401526020810190506108c6565b60008484015250505050565b6000601f19601f8301169050919050565b6000610909826108a7565b61091381856108b2565b93506109238185602086016108c3565b61092c816108ed565b840191505092915050565b6000819050919050565b61094a81610937565b82525050565b60008115159050919050565b61096581610950565b82525050565b600060c0830160008301516109836000860182610857565b5060208301516109966020860182610898565b50604083015184820360408601526109ae82826108fe565b91505060608301516109c36060860182610941565b5060808301516109d6608086018261095c565b5060a08301516109e960a086018261095c565b508091505092915050565b60006020820190508181036000830152610a0e818461096b565b905092915050565b600080fd5b600080fd5b600080fd5b60008083601f840112610a3b57610a3a610a16565b5b8235905067ffffffffffffffff811115610a5857610a57610a1b565b5b602083019150836001820283011115610a7457610a73610a20565b5b9250929050565b60008060208385031215610a9257610a916107ea565b5b600083013567ffffffffffffffff811115610ab057610aaf6107ef565b5b610abc85828601610a25565b92509250509250929050565b610ad1816107f4565b82525050565b6000602082019050610aec6000830184610ac8565b92915050565b610afb81610886565b8114610b0657600080fd5b50565b600081359050610b1881610af2565b92915050565b600060208284031215610b3457610b336107ea565b5b6000610b4284828501610b09565b91505092915050565b600081519050919050565b600082825260208201905092915050565b6000819050602082019050919050565b6000610b838383610857565b60208301905092915050565b6000602082019050919050565b6000610ba782610b4b565b610bb18185610b56565b9350610bbc83610b67565b8060005b83811015610bed578151610bd48882610b77565b9750610bdf83610b8f565b925050600181019050610bc0565b5085935050505092915050565b60006020820190508181036000830152610c148184610b9c565b905092915050565b600082825260208201905092915050565b7f506f7374206e6f7420666f756e64000000000000000000000000000000000000600082015250565b6000610c63600e83610c1c565b9150610c6e82610c2d565b602082019050919050565b60006020820190508181036000830152610c9281610c56565b9050919050565b7f4e487b7100000000000000000000000000000000000000000000000000000000600052602260045260246000fd5b60006002820490506001821680610ce057607f821691505b602082108103610cf357610cf2610c99565b5b50919050565b7f4349442063616e6e6f7420626520656d70747900000000000000000000000000600082015250565b6000610d2f601383610c1c565b9150610d3a82610cf9565b602082019050919050565b60006020820190508181036000830152610d5e81610d22565b9050919050565b60008160601b9050919050565b6000610d7d82610d65565b9050919050565b6000610d8f82610d72565b9050919050565b610da7610da282610886565b610d84565b82525050565b600081905092915050565b82818337600083830152505050565b6000610dd38385610dad565b9350610de0838584610db8565b82840190509392505050565b6000819050919050565b610e07610e0282610937565b610dec565b82525050565b6000610e198287610d96565b601482019150610e2a828587610dc7565b9150610e368284610df6565b60208201915081905095945050505050565b7f4e487b7100000000000000000000000000000000000000000000000000000000600052604160045260246000fd5b60008190508160005260206000209050919050565b60006020601f8301049050919050565b600082821b905092915050565b600060088302610ed97fffffffffffffffffffffffffffffffffffffffffffffffffffffffffffffffff82610e9c565b610ee38683610e9c565b95508019841693508086168417925050509392505050565b6000819050919050565b6000610f20610f1b610f1684610937565b610efb565b610937565b9050919050565b6000819050919050565b610f3a83610f05565b610f4e610f4682610f27565b848454610ea9565b825550505050565b600090565b610f63610f56565b610f6e818484610f31565b505050565b5b81811015610f9257610f87600082610f5b565b600181019050610f74565b5050565b601f821115610fd757610fa881610e77565b610fb184610e8c565b81016020851015610fc0578190505b610fd4610fcc85610e8c565b830182610f73565b50505b505050565b600082821c905092915050565b6000610ffa60001984600802610fdc565b1980831691505092915050565b60006110138383610fe9565b9150826002028217905092915050565b61102c826108a7565b67ffffffffffffffff81111561104557611044610e48565b5b61104f8254610cc8565b61105a828285610f96565b600060209050601f83116001811461108d576000841561107b578287015190505b6110858582611007565b8655506110ed565b601f19841661109b86610e77565b60005b828110156110c35784890151825560018201915060208501945060208101905061109e565b868310156110e057848901516110dc601f891682610fe9565b8355505b6001600288020188555050505b505050505050565b60006111018385610c1c565b935061110e838584610db8565b611117836108ed565b840190509392505050565b61112b81610937565b82525050565b6000604082019050818103600083015261114c8185876110f5565b905061115b6020830184611122565b949350505050565b7f4e6f742074686520617574686f72000000000000000000000000000000000000600082015250565b6000611199600e83610c1c565b91506111a482611163565b602082019050919050565b600060208201905081810360008301526111c88161118c565b9050919050565b7f416c72656164792064656c657465640000000000000000000000000000000000600082015250565b6000611205600f83610c1c565b9150611210826111cf565b602082019050919050565b60006020820190508181036000830152611234816111f8565b9050919050565b60006020820190506112506000830184611122565b9291505056fea2646970667358221220ffeb468c362334bc188bac26f5f36361afa16788b12092de7bb0dbc249119bd064736f6c63430008140033",
  "linkReferences": {},
  "deployedLinkReferences": {}
}